:100000000C94010E0C94220E0C94220E0C94220ED1
:100010000C94220E0C94220E0C94220E0C94220EA0
:100020000C94220E0C94220E0C94220E0C94220E90
:100030000C94220E0C94220E0C94220E0C94220E80
:100040000C94220E0C94220E0C94220E0C94220E70
:100050000C94220E0C9492210C94220E0C94220EDD
:100060000C94220E0C9430230C94220E0C94220E2D
:100070000C94220E0C94220E0C94220E0C94220E40
:100080000C94220E0C94220E0C94220E0C94220E30
:100090000C94220E0C94220E0C94220E0C944D1CE7
:1000A0000C94220E0C94220E0C94220E0C94220E10
:1000B0000C94220E0C94220E0C94220E0C94220E00
:1000C0000C94220E0C94220E0C94220E0C94220EF0
:1000D0000C94220E0C94220E0C9476240C94220E76
:1000E0000C94220E0A5344204361726420546573B9
:1000F00074210A000A5343414E210A00232323237B
:1001000023232323232323232323232323232323BF
:1001100023232323232323232323232323232323AF
:10012000232323232323232323232323232323239F
:10013000232323232323232323232323232323238F
:10014000232323232323230A0023204D616B6520CF
:10015000737572652073656E642043522B4C462084
:100160006F6E20456E74657220697320656E6162E2
:100170006C65642C206F7468657277697365207490
:100180006869732077696C6C206E6F7420776F726A
:100190006B2120230A002320746F2061636B6E6F34
:1001A000776C65646765207468617420796F752069
:1001B00063616E20726561642074686973206D6587
:1001C00073736167652E20202020202020202020AE
:1001D000202020202020202020202020202020201F
:1001E000230A002320466F72207468652066756CB0
:1001F0006C206175746F6D617469632074657374CC
:100200002C20706C65617365206A75737420707240
:1002100065737320454E544552206F7220302B4534
:100220006E746572202020202020202020230A00C8
:1002300023202020202020202020202020202020BB
:1002400020202020202020202020202020202020AE
:10025000202020202020202020202020202020209E
:10026000202020202020202020202020202020208E
:1002700020202020202020202020230A00232020AE
:1002800037207C20776C616E5F696F2020202020F2
:100290002D205465737420574C414E20492F4F2018
:1002A000506F7274732020202020202020202020D6
:1002B000202020202020202020202020202020203E
:1002C00020202020202020230A0023202036207CEC
:1002D00020627574746F6E7320202020202D2042C0
:1002E0007574746F6E732054657374202020202001
:1002F00020202020202020202020202020202020FE
:1003000020202020202020202020202020202020ED
:1003100020202020230A0023202035207C20693241
:10032000632020202020202020202D20493243201F
:10033000427573205465737420285250364261739D
:10034000655F493243536C6176652E686578206D30
:10035000757374206265206C6F6164656429202068
:1003600020230A0023202034207C206C6564732025
:10037000202020202020202D204C4544205465732F
:100380007420202020202020202020202020202019
:10039000202020202020202020202020202020205D
:1003A0002020202020202020202020202023230A5D
:1003B0000023202033207C20736463202020202011
:1003C000202020202D205465737420534420436145
:1003D0007264202020202020202020202020202087
:1003E000202020202020202020202020202020200D
:1003F0002020202020202020202323230A00232027
:100400002032207C207363616E2020202020202059
:10041000202D20476574205749464920496E666F54
:10042000726D6174696F6E20616E64207363616EBA
:1004300020666F7220416363657373706F696E74B9
:100440007320202020232323230A0023202031206F
:100450007C20696E666F20202020202020202D2007
:1004600047657420616C6C205749464920496E6687
:100470006F20616E642053657474696E6773202009
:10048000202020202020202020202020202020206C
:100490002023232323230A0023202030207C202014
:1004A00020202020202020202020202D2052756E6A
:1004B0002066756C6C2053656C66746573742028B7
:1004C000627574746F6E2B6C65642B6932632B6775
:1004D00070696F2B7364632920202020202323233D
:1004E0002323230A00232053656C656374696F6EB0
:1004F000204D656E753A20202020202020202020CD
:1005000020202020202020202020202020202020EB
:1005100020202020202020202020202020202020DB
:1005200020202020202020202023232323232323B6
:100530000A002320202020202020202020202020EE
:1005400020202020202020202020202020202020AB
:10055000202020202020202020202020202020209B
:10056000202020202020202020202020202020208B
:10057000202020202023232323232323230A002099
:10058000202323232323232323230A002323202080
:10059000546869732069732073656E74207468727F
:1005A0006F75676820746865202A2A2A2057494693
:1005B00049202A2A2A20496E746572666163652083
:1005C000202020202020202020002323232023233C
:1005D00023232323232323232323232323232323EB
:1005E00023232323232323232323232323232323DB
:1005F00023232323232323232323232323232323CB
:1006000023232323232323232323202323232323BD
:1006100023232323230A0023232323202320762E8E
:1006200020312E3461202020202020202D2D2D2D22
:100630002D2D2D2D2D2D2D2D2D2D2D2D2D2D2D2DEA
:100640002D2D202020202020202031322E30332E2E
:100650003230313220232023232323232323232337
:1006600023230A00232323232320232020202020A8
:10067000202020202020202020525036204D3235AE
:100680003620574946492053656C6674657374205B
:10069000202020202020202020202020202020205A
:1006A0002023202323232323232323232323230A39
:1006B0000023232323232320232323232323232330
:1006C00023232323232323232323232323232323FA
:1006D00023232323232323232323232323232323EA
:1006E00023232323232323232323232323232023DD
:1006F0002323232323232323232323230A00232306
:100700002323232323203C3C3C544553542053545F
:10071000415254204F4B2C20434F4445202A2A2A33
:100720004735364B464732394F35543335363052DC
:10073000544A31322A2A2A3E3E3E202323232323B1
:100740002323232323232323230A000A506C6561D8
:100750007365207365652074657874206F75747097
:100760007574206F6E20746865205749464920498A
:100770006E74657266616365210A0A00436F6D6D70
:10078000756E69636174696F6E0054657374696E28
:1007900067000A0A2A2A2A20572049204620492091
:1007A0002020204E204520542057204F2052204BFF
:1007B0002020202043204F204E204E204520432043
:1007C000542049204F204E202A2A2A0A0A000A0AC9
:1007D00052503620436F6E74726F6C204D32353636
:1007E00020574946492053656C6674657374210A25
:1007F0000A000A0A2A2A2A2053204520522049208A
:1008000041204C2020202049204E205420452052B9
:100810002046204120432045202A2A2A0A0A000A8D
:100820000A52503620436F6E74726F6C204D323511
:100830003620574946492053656C667465737421A8
:100840000A0A002D2D2D2053454C46544553542063
:100850002D2D2D0052503620436F6E74726F6C2018
:100860004D3235360023232323232323232323231D
:10087000232323232300232323232323232323236B
:10088000232323232323002323232323232323235B
:10089000232323232323230023232323232323234B
:1008A0002323232323232323000A0A5250362043E1
:1008B0006F6E74726F6C204D323536205749464941
:1008C0002053656C6674657374210A0A00414C4CB0
:1008D00020544553545320444F4E4521203C3C3C2A
:1008E00041434B2054455354204953204F4B2C2017
:1008F000434F4445202A2A2A355833414B3143304F
:100900004835365537325059304E34442A2A2A3E1B
:100910003E3E0A00414C4C20544553545320444F12
:100920004E45210053454C4654455354204F4B21CE
:1009300000414C4C20544553545320444F4E4521C4
:10094000000A3C3C3C5445535420534420434152FC
:1009500044204F4B2C20434F4445202A2A2A35332C
:10096000335245513936304C4235333455383734AB
:10097000464A2A2A2A3E3E3E0A000A3C3C3C54454E
:10098000535420574C414E20494F20504F525453FE
:10099000204F4B2C20434F4445202A2A2A363734F7
:1009A0005A5557333031414A30523437424D5359FA
:1009B000382A2A2A3E3E3E0A003C3C3C54455354C9
:1009C00020493243204F4B2C20434F4445202A2AB4
:1009D0002A4C443335343839303357453335313088
:1009E00046474337382A2A2A3E3E3E0A000A0A4230
:1009F0007574746F6E7320746573742069732064EA
:100A00006F6E652C206E6F772074657374696E67E6
:100A1000204C4544732E2E2E200A0A000A0A4275E5
:100A200074746F6E73207465737420697320646FBF
:100A30006E652C206E6F772074657374696E672005
:100A40004C4544732E2E2E200A0A000A3C3C3C548E
:100A500045535420425554544F4E53204F4B2C2055
:100A6000434F4445202A2A2A4B35323332465231ED
:100A70004D3334355A3555323330584E2A2A2A3EB2
:100A80003E3E0A000A496E746572666163652074B1
:100A900065737420697320646F6E65210A0A000A09
:100AA0003C3C3C544553542053454E44204F4B2C22
:100AB00020434F4445202A2A2A51483734323339BB
:100AC0003037364B5A52425635375549302A2A2A42
:100AD0003E3E3E0A000A0A4F4B2120574946492014
:100AE000496E74657266616365207365656D732018
:100AF000746F20626520776F726B696E67210A00E0
:100B0000574C414E204750494F3820697320776F2A
:100B1000726B696E672066696E65210A0A002A2A6F
:100B20002A204D616B6520737572652053595320DF
:100B30004D41534B2069732073657420636F72724B
:100B40006563746C79210A0A002A2A2A2054657385
:100B50007420574C414E204750494F2038202D2DAE
:100B60003E204641494C21202323232323232323B2
:100B7000232323230A0A00574C414E204750494F54
:100B8000313420697320776F726B696E67206669F4
:100B90006E65210A0A002A2A2A2054657374205798
:100BA0004C414E204750494F3134204C4F57202D57
:100BB0002D3E204641494C21202323232323232358
:100BC00023232323230A0A002A2A2A205465737424
:100BD00020574C414E204750494F31342048494717
:100BE00048202D2D3E204641494C212023232323FC
:100BF00023232323232323230A0A004D32353620BF
:100C000052545320697320776F726B696E67206648
:100C1000696E65210A0A002A2A2A204D616B652027
:100C20007375726520666C6F7720636F6E74726F78
:100C30006C20697320656E61626C6564210A0A002C
:100C40002A2A2A2054657374204D32353620525496
:100C500053202D2D3E204641494C21202323232380
:100C600023232323232323230A0A000A4750494F1F
:100C70002038204C4F572C204F4B210A000A2A2A9B
:100C80002A204750494F20382048494748212053BF
:100C9000484F554C44204245204C4F572120455247
:100CA000524F52212023232323232323232323238F
:100CB0000A000A2A2A2A204750494F2038204C4F40
:100CC00057212053484F554C44204245204849471E
:100CD0004821204552524F522120232323232323EE
:100CE00023232323230A000A4750494F2038204852
:100CF0004947482C204F4B210A000A4750494F20B2
:100D000038204C4F572C204F4B210A000A2A2A2A00
:100D1000204750494F203820484947482120534810
:100D20004F554C44204245204C4F572120455252AC
:100D30004F52212023232323232323232323230A46
:100D4000000A0A54657374696E67204D3235362087
:100D50004750494F38202850494E433729203C3CC2
:100D60002D2D20574C414E204750494F382E2E2EC6
:100D70000A002A2A2A2054657374204750494F31AB
:100D800034204C4F57202D2D3E204641494C2120E8
:100D90002323232323232323232323230A005465EC
:100DA0007374204750494F313420204C4F57202D29
:100DB0002D3E204F4B210A002A2A2A2054657374A5
:100DC000204750494F3136202048494748202D2D93
:100DD0003E204641494C2120232323232323232340
:100DE000232323230A0054657374204750494F314D
:100DF00034202048494748202D2D3E204F4B210AC2
:100E0000002A2A2A2054657374204750494F3134F0
:100E1000204C4F57202D2D3E204641494C21202368
:100E200023232323232323232323230A005465730B
:100E300074204750494F313420204C4F57202D2DDE
:100E40003E204F4B210A002A2A2A20546573742021
:100E50004750494F3134202048494748202D2D3EE6
:100E6000204641494C2120232323232323232323CA
:100E70002323230A0054657374204750494F3134AB
:100E8000202048494748202D2D3E204F4B210A0065
:100E90000A0A54657374696E67204D3235362047EF
:100EA00050494F3134202850494E433629202D2DAA
:100EB0003E3E20574C414E204750494F31342E2E54
:100EC0002E0A0A002A2A2A20474F542052455350FE
:100ED0004F4E5345205748494C45205254532048C3
:100EE00049474821204552524F5221004E4F20720F
:100EF0006573706F6E7365207768696C65205254F6
:100F0000532068696768202D2D3E204F4B210076C5
:100F100065720D000A436865636B20343A20004710
:100F20006F7420726573706F6E7365207768696C7B
:100F30006520525453206C6F77202D2D3E204F4B4F
:100F400021002A2A2A204E4F20524553504F4E53FB
:100F500045205748494C4520525453204C4F572167
:100F6000204552524F5221007665720D000A4368A7
:100F700065636B20333A20002A2A2A20474F5420E9
:100F8000524553504F4E5345205748494C452052E7
:100F90005453204849474821204552524F5221007E
:100FA0004E4F20726573706F6E7365207768696C41
:100FB00065205254532068696768202D2D3E204FCC
:100FC0004B21007665720D000A436865636B203221
:100FD0003A2000476F7420726573706F6E736520DE
:100FE0007768696C6520525453206C6F77202D2DE3
:100FF0003E204F4B21002A2A2A204E4F2052455393
:10100000504F4E5345205748494C45205254532089
:101010004C4F5721204552524F5221007665720D98
:10102000000A436865636B20313A20000A0A546560
:101030007374696E67204D32353620525453202820
:1010400050494E4A3229202D2D3E3E20574C414ECC
:10105000204354532E2E2E0A0A004E6F77207465BB
:101060007374696E6720746865206F746865722098
:101070004750494F7320706C6561736520776169D3
:10108000742E2E2E0A002A2A2A204D616B652073A9
:1010900075726520666C6F7720636F6E74726F6C0B
:1010A00020697320656E61626C6564210A0A002AFA
:1010B0002A2A2054657374204D3235362043545308
:1010C000202D2D3E204641494C212023232323233C
:1010D000232323232323230A0A000A0A2A2A2A2055
:1010E0004552524F52204D323536204354532044FE
:1010F0004F4553204E4F5420574F524B2050524F84
:101100005045524C59212054525920414741494E93
:10111000210A000A0A2A2A2A204552524F52204DFB
:101120003235362043545320444F4553204E4F54BC
:1011300020574F524B2050524F5045524C5921206E
:1011400054525920414741494E210A0A000A0A4F88
:101150004B2C204D32353620435453207365656D3A
:101160007320746F20626520776F726B696E6720E1
:1011700066696E652E0A000A0A4F4B2C204D3235E7
:101180003620435453207365656D7320746F20625D
:101190006520776F726B696E672066696E652E0ACF
:1011A00000232323232323232323230A002A2A2A59
:1011B0002A2A2A2A2A2A2A002B2B2B2B2B2B2B2BB1
:1011C0002B2B002D2D2D2D2D2D2D2D2D2D002B2BB1
:1011D0002B2B2B2B2B2B2B2B002A2A2A2A2A2A2A91
:1011E0002A2A2A0023232323232323232323000A19
:1011F0000A4D32353620435453206C6F770A0A006B
:101200000A0A2A2A2A204D323536204354532064B4
:101210006964206E6F7420676F206C6F7720776928
:101220007468696E2032207365636F6E6473210A7F
:101230000A000A0A4D323536204354532068696744
:10124000680A0A000A0A54657374696E67204D3291
:10125000353620435453202850494E4A3729203CE4
:101260003C2D2D20574C414E205254532E2E2E0AE9
:101270000A000A0A54657374696E67204D32353668
:1012800020435453202850494E4A3729203C3C2DB6
:101290002D20574C414E205254532E2E2E0A0A0018
:1012A0000A0A2B2B2B204E6F772054657374696EBE
:1012B0006720574C414E204D6F64756C6520492F57
:1012C0004F20506F727473202B2B2B0A0A0053444B
:1012D00043415244205445535420444F4E45210A23
:1012E00000534443415244205445535420444F4EEC
:1012F00045210A00534443415244005465737469C4
:101300006E67000A53444341524420544553542EBF
:101310002E2E0A000A0A5344434152442054657356
:10132000742E2E2E0A0A000A493243205445535483
:1013300020444F4E45210A000A4932432054455368
:101340005420444F4E45210A000A54574920544521
:101350005354204552524F52210A000A54574920F3
:1013600054455354204552524F52210A00493243AA
:10137000205457490054657374696E67000A4932F6
:10138000432054574920544553542E2E2E0A000A08
:101390000A49324320546573742E2E2E0A0A004CDB
:1013A0004544530054657374696E67000A4275744E
:1013B000746F6E7320617265204F4B210A000A42E0
:1013C0007574746F6E7320617265204F4B210A0033
:1013D000427574746F6E20322072656C617365643F
:1013E000210A00427574746F6E20322072656C6140
:1013F000736564210A000A0A427574746F6E2032A4
:1014000020707265737365642E2E2E2072656C6178
:101410007365210A000A0A427574746F6E203220C7
:10142000707265737365642E2E2E2072656C617305
:1014300065210A000A506C656173652070726573DE
:101440007320427574746F6E20535732210A000A5C
:10145000506C65617365207072657373204275749A
:10146000746F6E20535732210A00427574746F6E88
:10147000205357320054657374696E670042757467
:10148000746F6E20312072656C61736564210A008F
:10149000427574746F6E20312072656C617365647F
:1014A000210A000A0A427574746F6E20312070722E
:1014B00065737365642E2E2E2072656C61736521D1
:1014C0000A000A0A427574746F6E203120707265CA
:1014D000737365642E2E2E2072656C617365210A0C
:1014E000000A506C656173652070726573732042E9
:1014F0007574746F6E20535731210A000A0A4E6FBB
:10150000772074657374696E6720427574746F6EAA
:10151000732E0A000A506C656173652070726573E2
:101520007320427574746F6E20535731210A000A7C
:101530000A4E6F772074657374696E672042757404
:10154000746F6E732E0A00427574746F6E20535759
:10155000310054657374696E670067657420657641
:101560006572797468696E670D0073686F772069BA
:101570006F0D0073686F77206E65740D0073686F70
:10158000772073746174730D0073686F7720636FD5
:101590006E6E656374696F6E0D000A2323232057F6
:1015A00049464920494E464F0A007363616E200D3B
:1015B0000073686F77207374617475730D000A236C
:1015C00023232057494649205343414E0A004348AC
:1015D00045434B204D455353414745532100232359
:1015E0002054455354204552524F52202323000A81
:1015F0000A000A0A00504C454153452043484543E0
:101600004B205250362D4D32353620415353454DE7
:10161000424C592121210A203C3C3C544553542042
:101620004641494C2C20434F4445202D2D2D41420D
:10163000354F5037393346453452333049513933B9
:10164000314D2D2D2D3E3E3E200A000A4154544579
:101650004E54494F4E3A2054455354532046494E18
:1016600049534845442057495448204552524F5207
:10167000532121210A000A4552524F52204552520D
:101680004F52204552524F52204552524F52204500
:1016900052524F52204552524F52204552524F52B1
:1016A0000A00504C4541534520434845434B205286
:1016B00050362D4D32353620415353454D424C590D
:1016C0002121210A0A000A415454454E54494F4EE3
:1016D0003A2054455354532046494E4953484544B3
:1016E0002057495448204552524F52532121210A34
:1016F000000A4552524F52204552524F52204552F5
:10170000524F52204552524F52204552524F522072
:101710004552524F52204552524F520A00636F7247
:10172000726563746C7920636F70696564206F6E95
:10173000207468652053442043617264210A0A00C2
:10174000506C65617365207665726966792074688E
:10175000617420746865205465737466696C6520D3
:1017600069730A005465737420537472696E6773E9
:1017700020646F206E6F74206D61746368210A00AD
:101780000A0A202A2A2A204552524F5220574849F5
:101790004C4520434845434B494E4720544845203B
:1017A0005445535446494C4521202A2A2A0A0063AD
:1017B0006F72726563746C7920636F706965642001
:1017C0006F6E207468652053442043617264210A5F
:1017D0000A00506C656173652076657269667920D0
:1017E0007468617420746865205465737466696CEC
:1017F000652069730A005465737420537472696EAE
:10180000677320646F206E6F74206D61746368214C
:101810000A000A0A202A2A2A204552524F522057EB
:1018200048494C4520434845434B494E472054487E
:1018300045205445535446494C4521202A2A2A0A1A
:1018400000636F72726563746C7920636F70696591
:1018500064206F6E20746865205344204361726475
:10186000210A0A00506C65617365207665726966AD
:101870007920746861742074686520546573746697
:10188000696C652069730A006572726F72206F70EF
:10189000656E696E6720000A0A00506C65617365A9
:1018A0002076657269667920746861742074686551
:1018B0002053442043617264206973204F4B210AF6
:1018C000006F70656E696E6720726F6F7420646957
:1018D000726563746F7279206661696C6564210A50
:1018E000006F70656E696E6720726F6F7420646937
:1018F000726563746F7279204F4B210A00506C65DA
:1019000061736520766572696679207468617420F8
:101910007468652053442043617264206973204FCA
:101920004B210A006F70656E696E672066696C6591
:1019300073797374656D206661696C6564210A0052
:101940006F70656E696E672066696C657379737414
:10195000656D204F4B210A00506C656173652076E0
:1019600065726966792074686174207468652053B3
:10197000442043617264206973204F4B210A004F59
:1019800070656E696E6720706172746974696F6EDC
:10199000204641494C4544210A004F70656E696EEE
:1019A0006720706172746974696F6E204F4B210AF1
:1019B00000506C6561736520766572696679207484
:1019C0006861742074686520534420436172642008
:1019D0006973204F4B210A00666F726D61743A2063
:1019E0000077722E70722E3A2000636F70793A2061
:1019F0002020004D420A0073697A653A20202000B9
:101A0000646174653A2020200073657269616C3AE4
:101A1000203078007265763A202020200070726FA6
:101A2000643A202020006F656D3A20202020006D50
:101A3000616E75663A20203078000A232323232321
:101A40002323232323232320493243204552524F6B
:101A5000522121212121202D205457492053544126
:101A600054453A203078000A2323232323232323B9
:101A70002323232320493243204552524F52212110
:101A8000212121202D205457492053544154453AB7
:101A900020307800200A00434F44453A000A45525E
:101AA000524F52204552524F52204552524F5221CE
:101AB00021210A000A00434F44453A000A45525288
:101AC0004F52204552524F52204552524F522121DF
:101AD000210A0020232323230A0023232323205425
:101AE00045535420230020232323230A00232323A8
:101AF000232054455354202300446F6E65210A006F
:101B0000446F6E65210A000A232323232323232302
:101B100023232323205245545259212023232323B6
:101B20002323232323232323230A000A23232323DA
:101B3000232323232054494D454F5554212023234B
:101B400023232323232323232323230A000A2323BA
:101B500023230A000A2323232323232323232323AA
:101B60002320524554525921202323232323232366
:101B70002323232323230A000A232323232323238A
:101B8000232054494D454F555421202323232323FB
:101B900023232323232323230A000A232323230A83
:101BA000000A232323232323232323232323205215
:101BB0004554525921202323232323232323232342
:101BC0002323230A000A232323232323232320540C
:101BD000494D454F555421202323232323232323D9
:101BE00023232323230A000A232323230A000A543E
:101BF000494D454F55540A000A54494D454F5554D7
:101C00000A0011241FBECFEFD1E2DEBFCDBF00E03E
:101C10000CBF13E0A0E0B2E0E6EDF7EB00E00BBF95
:101C200002C007900D92A43CB107D9F714E1A4ECCF
:101C3000B3E001C01D92AD36B107E1F70E945B171A
:101C40000C94E95B0C940000813611F48AE008954D
:101C5000823611F48BE00895833611F48CE00895F8
:101C6000843611F48DE00895853611F48EE00895E0
:101C7000863611F48FE008958053089584EA93E145
:101C80006FE973E10E94162180E00E94531F88ECE7
:101C900090E00E942E2281E00E94531F88EC90E089
:101CA0000E942E2282E00E94531F88EC90E00E9446
:101CB0002E2284E00E94531F88EC90E00E942E2286
:101CC00088E00E94531F88EC90E00E942E2289E059
:101CD0000E94531F88EC90E00E942E228BE00E940D
:101CE000531F88EC90E00E942E228FE00E94531F29
:101CF00088EC90E00E942E2284EF91E00E942E2238
:101D000080E00E94531F089582E595E167E475E144
:101D10000E94162181E00E94531F8FE295E10E94EC
:101D20000F2384E195E10E940F238CEF94E10E9440
:101D30007A2681EE94E10E947A269499FECF81E082
:101D400090E00E942E229499F8CF81E090E00E94CA
:101D50002E229499F2CF9499F0CF8FE00E94531FD6
:101D600082EC94E10E940F2383EA94E10E947A2698
:101D7000949BFECF80E994E10E940F238DE794E1CC
:101D80000E947A2688E00E94531F85E794E16AE664
:101D900074E10E9416218FE494E10E940F2384E3F2
:101DA00094E10E947A269399FECF81E090E00E9410
:101DB0002E229399F8CF81E090E00E942E229399F1
:101DC000F2CF9399F0CF8FE00E94531F85E194E109
:101DD0000E940F2386EF93E10E947A26949BFECF08
:101DE00083EE93E10E940F2380ED93E10E947A2617
:101DF0008EEB93E10E940F238CEA93E10E947A26F6
:101E0000089580E09BE10E940F2389EF9AE10E94F0
:101E10007A2608950F931F93082F8AE00E94FA22D2
:101E20008AE00E94412610C015E483E20E94FA2253
:101E300083E20E9441261150C1F78AE00E94FA22F3
:101E40008AE00E9441260150002371F71F910F91F3
:101E500008958091C4038823D9F184E00E940A0F79
:101E600081EF96E10E940F2386EC96E10E940F23FA
:101E700082EA96E10E940F2386E796E10E947A2685
:101E80008BE496E10E947A2685EF95E10E947A26FE
:101E900084E00E940A0F82EF95E10E940F238FEEEB
:101EA00095E10E947A268EED95E16EEC75E10E9437
:101EB00016218FE00E94531F8AEF90E00E942E228D
:101EC00080E00E94531F8AEF90E00E942E22F1CF03
:101ED00008950E943C25892B11F480E008950E940A
:101EE000CE240E946C2508950E94690F8823E1F397
:101EF00008958AE995E10E940F2380E00E94531F14
:101F00000E94DE268FE79FE00E9402238AE00E9463
:101F1000FA2288E00E94531F80E092E064E072E0C1
:101F20000E9482288FE79FE00E9402238AE00E949D
:101F3000FA228CE00E94531F8AE092E062E172E094
:101F40000E9482288FE79FE00E9402238AE00E947D
:101F5000FA2286E00E94531F86E192E060E272E07E
:101F60000E9482288FE79FE00E9402238AE00E945D
:101F7000FA2286E00E94531F89E895E10E947A26A2
:101F800004C00E94CE240E94FA220E943C25892B84
:101F9000C1F78AE00E94FA2283E00E94531F8DE776
:101FA00095E10E947A2604C00E94CE240E94FA2263
:101FB0000E943C25892BC1F78AE00E94FA2283E027
:101FC0000E94531F83E795E10E947A2604C00E9475
:101FD000CE240E94FA220E943C25892BC1F78AE078
:101FE0000E94FA2283E00E94531F8AE695E10E9434
:101FF0007A2604C00E94CE240E94FA220E943C2528
:10200000892BC1F78AE00E94FA228CE00E94531FBC
:102010008AE595E10E947A2604C00E94CE240E949F
:10202000FA220E943C25892BC1F78AE00E94FA22FD
:1020300088E00E94531F0E943F298AE00E94FA22F2
:102040008AE00E94412680E00E94531F0895EF928B
:10205000FF920F931F93DF93CF930F92CDB7DEB70D
:1020600080EA92E10E947A2682E792E10E947A2633
:1020700084E492E10E940F238091030187FF23C033
:1020800082E392E10E940F2300E010E006C084E1A9
:1020900090E00E942E220F5F1F4F8091030187FF67
:1020A00004C00436110599F703C00436110578F011
:1020B00080E092E10E940F238091C4038F5F8093A0
:1020C000C40311E005C08FEE91E10E940F2310E0E0
:1020D00010921C048AEF90E00E942E22EE24FF242E
:1020E0002AC084EE91E10E947A2689ED91E10E9456
:1020F0007A268EEC91E10E947A2683EC91E10E948F
:102100007A2688EB91E10E947A268DEA91E10E947D
:102110007A2681EA91E10E947A260894E11CF11C5A
:10212000C70164E170E00E94C659892B21F482E363
:1021300090E00E942E2280911C04882321F488ECD8
:10214000E816F10471F68AEF90E00E942E22809149
:102150001C04882359F0112349F487E791E10E9478
:102160007A268DE491E10E940F2315C083E191E16D
:102170000E947A268AED90E10E940F238FEA90E177
:102180000E947A2686E890E10E947A268091C40314
:102190008F5F8093C4038AE590E10E947A2680E0F5
:1021A0000E94531F0E94DE268FE79FE00E940223B9
:1021B0008AE00E94FA2288E00E94531F80E092E0A9
:1021C00064E072E00E9482288FE79FE00E94022371
:1021D0008AE00E94FA220E9448258CE290E10E9447
:1021E0000F23809105018B7F8093050184E190E0AE
:1021F0000E942E2281E290E10E940F238CE190E167
:102200000E947A2684E092E040E65EEA6AE070E0AE
:102210000E94B225882361F486EF9FE00E940F237D
:102220008091C4038F5F8093C403E4E0E98305C019
:1022300083ED9FE00E940F2319820E944825809120
:10224000050184608093050184E190E00E942E22C4
:1022500088EC9FE00E940F2383EC9FE00E947A2687
:1022600084E092E040E65EEA6AE070E00E94B22517
:10227000882329F480EA9FE00E940F230BC088E79F
:102280009FE00E940F238091C4038F5F8093C4035B
:10229000F5E0F9830E944825809105018B7F8093AA
:1022A000050184E190E00E942E228DE69FE00E94CD
:1022B0000F2388E69FE00E947A2684E092E040E6C1
:1022C0005EEA6AE070E00E94B225882361F482E44D
:1022D0009FE00E940F238091C4038F5F8093C4030B
:1022E00086E0898304C08FE19FE00E940F230E9453
:1022F00048258091050184608093050182E390E088
:102300000E942E2284E19FE00E940F238FE09FE035
:102310000E947A2684E092E040E65EEA6AE070E09D
:102320000E94B225882329F48CEE9EE00E940F23A0
:102330000BC084EC9EE00E940F238091C4038F5F4A
:102340008093C403E7E0E9830E94482582E390E09C
:102350000E942E2282E390E00E942E2280E99EE0DD
:102360000E940F23469A82E390E00E942E2285E28B
:1023700092E00E94242700E021C00E94CE240E9407
:102380006C258823D9F080912A0490912B0403971F
:10239000A8F080917F0F0E94240E82FF05C085E780
:1023A0009EE00E940F230AC087E49EE00E940F2354
:1023B0008091C4038F5F8093C4030EE00E943C258C
:1023C000892BD9F6469882E390E00E942E2285E27E
:1023D00092E00E94242721C00E94CE240E946C25F6
:1023E0008823D9F080912A0490912B040397A8F0B8
:1023F00080917F0F0E94240E82FD05C08DE29EE039
:102400000E940F230AC081E09EE00E940F2380916A
:10241000C4038F5F8093C4030FE00E943C25892B87
:10242000D9F6469A82E390E00E942E2285E292E05D
:102430000E94242721C00E94CE240E946C2588235C
:10244000D9F080912A0490912B040397A8F08091F1
:102450007F0F0E94240E82FF05C086EE9DE00E9441
:102460000F230AC088EB9DE00E940F238091C403D4
:102470008F5F8093C40300E10E943C25892BD9F62D
:10248000469882E390E00E942E2285E292E00E942C
:10249000242721C00E94CE240E946C258823D9F0D5
:1024A00080912A0490912B040397A8F080917F0FCC
:1024B0000E94240E82FD05C08EE99DE00E940F233C
:1024C0000AC082E79DE00E940F238091C4038F5FC2
:1024D0008093C40301E10E943C25892BD9F681E455
:1024E0009DE00E940F238DE292E061E472E00E9481
:1024F0008228882309F49FC085E492E061E472E0B9
:102500000E948228882309F496C08AE592E061E45B
:1025100072E00E948228882309F48DC086E490E04E
:102520000E942E22379B0BC08CE09DE00E940F235F
:102530008091C4038F5F8093C40312E105C08AEFCA
:102540009CE00E940F2310E088E00E94531F87E761
:1025500092E061E472E00E948228882309F46BC053
:1025600086E490E00E942E22379B05C087EE9CE017
:102570000E940F230AC082EB9CE00E940F238091EF
:10258000C4038F5F8093C40313E18AE592E061E4A2
:1025900072E00E948228882309F44DC086E490E00E
:1025A0000E942E22379B0BC08DE79CE00E940F23D8
:1025B0008091C4038F5F8093C40314E104C08BE651
:1025C0009CE00E940F230E943F298AE00E94FA2289
:1025D0008AE00E944126F981F450F43038F480E416
:1025E0009CE00E947A2687E19CE002C08BEF9BE092
:1025F0000E947A260E3011F0003119F488EC9BE02D
:1026000009C00F3011F0013119F486E99BE002C0D6
:1026100087E79BE00E947A261251133038F489E450
:102620009BE00E947A268EE19BE002C080E09BE066
:102630000E947A2607C08091C4038F5F8093C403F1
:102640000E9495260F90CF91DF911F910F91FF90DF
:10265000EF9008950F931F93CF93DF938EEB95E147
:102660000E940F2380E00E94531F0E94DE268FE706
:102670009FE00E9402238AE00E94FA2288E00E94E2
:10268000531F80E092E064E072E00E9482288FE7AE
:102690009FE00E9402238AE00E94FA228CE00E94BE
:1026A000531F8AE092E062E172E00E9482288FE785
:1026B0009FE00E9402238AE00E94FA2286E00E94A4
:1026C000531F86E192E060E272E00E9482288FE769
:1026D0009FE00E9402238AE00E94FA2283E00E9487
:1026E000531F81EB95E10E947A2604C00E94CE24FC
:1026F0000E94FA220E943C25892BC1F78AE00E94A1
:10270000FA2281E00E94531F8AEA95E10E947A260C
:1027100084E992E040EE50E762E770E00E94B22563
:10272000882359F18AE00E94FA22C0E0D0E00AC072
:102730000E94CE24182F0E94FA22FE01ED5CF84F71
:10274000108321960E943C25892B91F780E00E94FE
:10275000531F0E943F2903E317E006C0F80181914F
:102760008F010E94412621972097C1F78AE00E949D
:10277000FA228AE00E94412602C00E949526DF913B
:10278000CF911F910F9108951F93CF93DF938FE8FF
:1027900093E10E947A268DE793E10E940F2385E75B
:1027A00093E16DE673E10E94162184E690E00E94B9
:1027B0002E2211E0C0E0D0E0CE016AE043E00E94AA
:1027C00034248AE30E94FA22812F90E06AE043E0F9
:1027D0000E9434248CE20E94FA2280E20E94FA22B3
:1027E000CE016AE043E00E944E298AE30E9441261E
:1027F000812F90E06AE043E00E944E298CE20E9423
:10280000412680E20E9441268AE060E043E0212FD9
:102810000E949C1B8AE06DE10E943D1B8AE00E94A1
:10282000021B811769F08BE593E10E940F2389E475
:1028300093E10E947A268091C4038F5F8093C40342
:10284000110F113208F011E02196CE0166E070E020
:102850000E94DA59892B31F48AE00E94FA228AE038
:102860000E94412684E690E00E942E22C831D105C4
:1028700009F0A2CF8AE060E043E020E00E949C1BC8
:1028800088E393E10E947A2687E293E10E940F2376
:10289000DF91CF911F910895EF92FF920F931F93B5
:1028A000CF93DF93EB018A0179010BC0C701B80117
:1028B0000E94665B009729F4CE010E94F13B81E003
:1028C00006C0CE01B7010E94993F882379F7DF91B6
:1028D000CF911F910F91FF90EF900895EF92FF928B
:1028E0000F931F93DF93CF93CDB7DEB7E1970FB66A
:1028F000F894DEBF0FBECDBF8C017E010894E11CB1
:10290000F11C97010E944C14882319F420E030E058
:1029100005C0C801B7010E9428569C01C901E19673
:102920000FB6F894DEBF0FBECDBFCF91DF911F91E0
:102930000F91FF90EF9008950F93DF93CF93CDB752
:10294000DEB76D970FB6F894DEBF0FBECDBF892BF3
:1029500009F49AC0CE0101960E94F729882309F450
:1029600093C08FE29AE10E947A26898190E060E12B
:102970000E9402278AE00E94412686E29AE10E9494
:102980007A26CE0102960E9488268AE00E9441267D
:102990008DE19AE10E947A26CE0105960E94882652
:1029A0008AE00E94412684E19AE10E947A268B8582
:1029B00090E06AE00E9402278AE00E94412689E0B6
:1029C0009AE10E947A268C859D8560E10E9402270B
:1029D0008AE00E94412680E09AE10E947A26898955
:1029E00090E06AE00E9402278FE20E9441268889D7
:1029F00090E06AE00E9402278AE00E94412687EF69
:102A000099E10E947A262A893B894C895D896E89E1
:102A10007F89888D998D04E10E94A958C9016AE0D7
:102A20000E94022783EF99E10E947A268AEE99E1BB
:102A30000E947A268A8D90E06AE00E9402278AE04E
:102A40000E94412681EE99E10E947A268C8D90E0C9
:102A50006AE00E9402278FE20E9441268B8D90E05F
:102A60006AE00E9402278AE00E94412688ED99E1EF
:102A70000E947A268D8D90E06AE00E9402278AE00B
:102A80000E94412681E001C080E06D960FB6F89467
:102A9000DEBF0FBECDBFCF91DF910F9108952F9272
:102AA0003F924F925F926F927F928F929F92AF92DE
:102AB000BF92CF92DF92EF92FF920F931F93DF931B
:102AC000CF93CDB7DEB7C450D1400FB6F894DEBF78
:102AD0000FBECDBF0E94BF2F8823F9F089E992E095
:102AE0000E94882684E690E00E942E2280E00E94C8
:102AF000531F85E49DE261EF7EE246E45BE226EF50
:102B000030E300E00E940957CD5FDE4F9983888350
:102B1000C350D140892B39F507C086EA92E00E9464
:102B2000882681EB99E1B5C085E49DE261EF7EE204
:102B300046E45BE226EF30E30FEF0E940957CD5FDA
:102B4000DE4F99838883C350D140892B29F08AE9CD
:102B500099E10E947A2607C08FE799E10E947A26C0
:102B600088E599E196C0CD5FDE4F88819981C35099
:102B7000D1400E9442433C010097A9F080E499E1D2
:102B80000E947A26C30167EB72E08E010F5F1F4F30
:102B9000A8010E947056C301B8010E94E7551C01AC
:102BA000009741F420C084E299E10E947A268DEFDB
:102BB00098E16FC081EE98E10E947A26C3010E94DD
:102BC0009C1442E3E42EF12CEC0EFD1E32E5A32E04
:102BD000B12CAC0EBD1E24E2922E97E5C92ED12C4D
:102BE000CC0EDD1E2EC081EC98E10E947A268AE987
:102BF00098E14FC0D7010D900020E9F78D010150F9
:102C000010400E191F09C7010E948826F501808116
:102C100084FD02C080E201C08FE2192D101B0E94CA
:102C2000412604C080E20E94412611501123D1F7B1
:102C3000D6018D919C916AE00E9402278AE00E9451
:102C40004126C101B7010E94993F882399F687E97F
:102C500098E10E947A26C301B10149EB52E00E943B
:102C60006E144C01009721F0AA24BB2465017EC09C
:102C700088E898E10E947A2689EB92E00E948826F3
:102C80008AE00E94412684E698E10E947A2681E447
:102C900098E10E947A268091C4038F5F8093C403D9
:102CA00087C0A114B104C104D104A9F5CE018D5986
:102CB0009F4F64ED72E00E949E5B6DED72E045E215
:102CC00050E00E94765B009731F18091C4038F5FE2
:102CD0008093C40382E198E10E940F2386EF97E17D
:102CE0000E940F2382ED97E10E940F238FEA97E164
:102CF0000E940F2380E897E10E947A2684E697E1FC
:102D00000E947A2680E497E10E947A268DE197E17D
:102D10000E947A264DC083E6E82EF12CEC0EFD1EB3
:102D200000E010E0F70180810E944126D7018D91DB
:102D30007D010E94FA220F5F1F4F0415150594F3C1
:102D400080EA90E0A0E0B0E0A80EB91ECA1EDB1E2B
:102D5000D601C5018F779070A070B0700097A10563
:102D6000B10521F481E090E00E942E22C401BE0151
:102D70006D597F4F40EA50E00E948B382C011816A5
:102D800019060CF48ECFC4010E948538C1010E943F
:102D9000EB3BC3010E94BD31CD5FDE4F888199813D
:102DA000C350D1400E94015784EF91E00E942E222F
:102DB000CC5FDE4F0FB6F894DEBF0FBECDBFCF9114
:102DC000DF911F910F91FF90EF90DF90CF90BF9018
:102DD000AF909F908F907F906F905F904F903F90BB
:102DE0002F90089584E193E10E947A2683E093E195
:102DF0000E940F238BEF92E164EF72E10E94162193
:102E00000E944F1580E991E00E942E2280E00E94EE
:102E1000531F81EE92E10E940F238EEC92E10E94FB
:102E20007A26089585ED9AE00E947A268FE99AE045
:102E30000E947A2684E89AE00E940F230E94840E62
:102E40008BE49AE00E947A268CE19AE00E940F239C
:102E50008DEE99E00E947A260E943E0E0E94C413D5
:102E60000E94290F89EB99E00E947A260E94271080
:102E70000E94290F8AE799E00E947A260E94F216A2
:102E80000E94290F81E499E00E947A2681E399E06B
:102E900064E279E00E94162181E00E940A0F84E139
:102EA00099E00E940F238DEC98E00E947A2681E041
:102EB0000E940A0F08951F930E9452220E94CC1F65
:102EC00082E00E940A0F89EA98E00E940F2382E0C4
:102ED0000E940A0F8FE00E94531F82E390E00E943D
:102EE0002E2288E998E067E878E00E94162182E3C4
:102EF00090E00E942E2286E798E065E678E00E9446
:102F0000162184E598E063E478E00E941621809120
:102F10000B01806480930B018AEF90E00E942E22C7
:102F200080910B018F7B80930B018FE198E00E94D1
:102F30000F2382EF97E00E940F238EEC97E00E9410
:102F40007A2682E997E00E947A2688E40E94701926
:102F500082E099E10E94891984E690E00E942E2285
:102F60008AE060E043E029E00E949C1B8AE897E049
:102F70006CE777E00E9416218BE497E00E940F2314
:102F80008AE00E94FA228AE00E94412681E00E94A3
:102F9000531F10E088E00E94531F8EEF96E00E94BE
:102FA0007A2681EB96E00E947A2684E696E00E94DB
:102FB0007A2687E196E00E947A268AEC95E00E94C4
:102FC0007A268CE895E00E947A26812F1F5F90E098
:102FD0006AE043E00E944E298FE795E00E947A263E
:102FE00082E395E00E947A2685EE94E00E947A269C
:102FF00088E994E00E947A268BE494E00E947A2685
:103000008EEF93E00E947A2681EB93E00E947A266D
:1030100084E693E00E947A2687E193E00E947A2674
:103020008AEC92E00E947A268DE792E00E947A264E
:1030300080E392E00E947A2683EE91E00E947A2655
:1030400086E991E00E947A2689E491E00E947A263E
:103050008CEF90E00E947A260E94740F82E00E941A
:10306000531F8FE79FE063E073E00E94665B009769
:1030700041F08FE79FE065E073E00E94665B009798
:1030800019F40E94790F86CF8FE79FE06AE073E022
:103090000E94665B009741F08FE79FE06CE073E071
:1030A0000E94665B009739F484EF90E00E947A26D4
:1030B0000E942A136FCF8FE79FE061E173E00E94C7
:1030C000665B009741F08FE79FE063E173E00E9449
:1030D000665B009759F484EE90E00E947A260E9485
:1030E000F21688EE93E00E942E2254CF8FE79FE0E5
:1030F00067E173E00E94665B009741F08FE79FE015
:1031000069E173E00E94665B009719F40E943E0E2D
:1031100041CF8FE79FE06EE173E00E94665B00970E
:1031200041F08FE79FE060E273E00E94665B0097EA
:1031300019F40E94C4132ECF8FE79FE064E273E07E
:103140000E94665B009741F08FE79FE066E273E0C4
:103150000E94665B009719F40E94840E1BCF8FE7D4
:103160009FE06EE273E00E94665B009741F08FE79C
:103170009FE060E373E00E94665B009719F40E9491
:10318000271008CF8FE79FE068E373E00E94665B3B
:103190000097F1F08FE79FE06AE373E00E94665BBF
:1031A000009739F480910501846080930501469869
:1031B000F1CE8FE79FE06DE373E00E94665B0097BE
:1031C00039F4809105018B7F80930501469AE2CE08
:1031D0000E9412178091740D81608093740D10927B
:1031E000760D1092750D8091750D9091760D853646
:1031F0009105C8F381E00E94531F1092760D109242
:10320000750DC8CE1F93182F87E69AE10E940F23F1
:10321000812F90E060E10E9412248AE00E94FA224D
:103220008AE39AE10E947A26812F90E060E10E9471
:1032300002278AE00E9441268091C4038F5F809319
:10324000C4031F9108951F93182F84E00E940A0F52
:103250008CEB9AE10E940F2386EB9AE10E940F23E8
:10326000812F90E06AE00E94122484EB9AE10E9490
:103270000F238DE99AE10E947A2687E99AE10E945C
:103280007A26812F90E06AE00E94022784E99AE181
:103290000E947A2684E00E940A0F1F9108951F93CE
:1032A000182F82E00E940A0F8DEE9AE10E940F23F0
:1032B000812F90E06AE00E94122486EE9AE10E943B
:1032C0000F238AED9AE10E947A26812F90E06AE02E
:1032D0000E94022783ED9AE10E947A261F910895A9
:1032E000F8948093B8001092B9008FEF8093BB00E0
:1032F00084E08093BC008091C50381608093C50306
:10330000789408950895909341038093400308951D
:10331000089590934303809342030895DF93CF93DE
:103320000F92CDB7DEB786E9898389818150898381
:103330008F5FD9F70F90CF91DF910895DF93CF93EF
:103340000F92CDB7DEB78091BC0080FD71C0809137
:10335000C50380FF50C08091CC03882309F468C066
:103360008130D1F486E989838981815089838F5F97
:10337000D9F792E090930E048091C7038093CE0317
:103380008091C8038093CF031092C50385EA809390
:10339000BC009093CC034CC08230E1F486E9898371
:1033A0008981815089838F5FD9F78091C9038F5FAD
:1033B00080930E048091C70381608093C70380933C
:1033C000CE031092C50385EA8093BC0083E080930E
:1033D000CC032EC0833061F51092CC038091CA03D8
:1033E0009091CB032FEF8F3F920711F1E0914003B3
:1033F000F09141031CC08091BC0080FDFCCF9091F6
:10340000C6039923A9F01092CC038091C503816073
:103410008093C5031092C7031092CB031092CA0386
:103420001092C903E0914203F0914303892F19954B
:103430000F90CF91DF910895FF920F931F93182F54
:10344000062FF42E02C00E949E198091BC0080FDC0
:10345000FACF8091CC038823B1F782E08093CC032C
:103460001093C7030093CA031092CB03F092C903D1
:103470001F910F91FF900895EF92FF920F931F936A
:10348000E82E162F042FF22E02C00E949E19809162
:10349000BC0080FDFACF8091CC038823B1F781E096
:1034A0008093CC031093CA031092CB03E092C7031E
:1034B0000093C803F092C9031F910F91FF90EF9002
:1034C00008959C018091BC0080FDFCCF8091C503D4
:1034D00080FF0CC0EFEDF3E0D90170E06E0F7F1FAD
:1034E00002C081918D93E617F707D9F7089580916F
:1034F000BC0080FDFCCF8091C6030895FF920F931E
:103500001F93CF93DF93082FF62EEA01122F02C0EC
:103510000E949E198091BC0080FDFACF8091CC035F
:103520008823B1F781E08093CC030093C7038FEF2A
:103530009FEF9093CB038093CA03F092C80310933C
:10354000C90302C00E949E198091BC0080FDFACF81
:103550008091CC038823B1F78091C50380FF05C01B
:103560001F5FCE01612F0E94611ADF91CF911F91E1
:103570000F91FF900895EF92FF920F931F93DF93A7
:10358000CF930F92CDB7DEB7082F7B01142F02C067
:103590000E949E198091BC0080FDFACF8091CC03DF
:1035A0008823B1F786E989838981815089838F5F78
:1035B000D9F782E08093CC030093C7038FEF9FEF8E
:1035C0009093CB038093CA031093C90302C00E9457
:1035D0009E198091BC0080FDFACF8091CC03882396
:1035E000B1F78091C50380FF05C01F5FC701612F40
:1035F0000E94611A0F90CF91DF911F910F91FF9060
:10360000EF9008951F93DF93CF930F92CDB7DEB75E
:10361000182F02C00E949E198091BC0080FDFACF35
:103620008091CC038823B1F786E989838981815011
:1036300089838F5FD9F782E08093CC031093C7030F
:103640008FEF9FEF9093CB038093CA0381E0809329
:10365000C90302C00E949E198091CC038823D1F730
:103660008091C50380FD02C080E002C08091DF032D
:103670000F90CF91DF911F9108950F931F93DF93C8
:10368000CF930F92CDB7DEB7182F062F02C00E943E
:103690009E198091BC0080FDFACF8091CC038823D5
:1036A000B1F786E989838981815089838F5FD9F752
:1036B00082E080930E041093CE030093CF03109208
:1036C000C50385EA8093BC000F90CF91DF911F91D5
:1036D0000F910895FF920F931F93DF93CF930F9253
:1036E000CDB7DEB7182F062FF42E02C00E949E1908
:1036F0008091BC0080FDFACF8091CC038823B1F784
:1037000086E989838981815089838F5FD9F783E036
:1037100080930E041093CE030093CF03F092D00356
:103720001092C50385EA8093BC000F90CF91DF9182
:103730001F910F91FF900895EF92FF920F931F93A7
:10374000DF93CF930F92CDB7DEB7182F062FF42E4D
:10375000E22E02C00E949E198091BC0080FDFACF2B
:103760008091CC038823B1F786E9898389818150D0
:1037700089838F5FD9F784E080930E041093CE0382
:103780000093CF03F092D003E092D1031092C503CF
:1037900085EA8093BC000F90CF91DF911F910F912C
:1037A000FF90EF900895DF92EF92FF920F931F9397
:1037B000DF93CF930F92CDB7DEB7182FF62EE42EFE
:1037C000D22E02C00E949E198091BC0080FDFACFCB
:1037D0008091CC038823B1F786E989838981815060
:1037E00089838F5FD9F785E080930E041093CE0311
:1037F000F092CF03E092D003D092D1030093D20392
:103800001092C50385EA8093BC000F90CF91DF91A1
:103810001F910F91FF90EF90DF900895EF92FF922C
:103820000F931F93DF93CF930F92CDB7DEB7082F7F
:10383000F62EE72E142F02C00E949E198091BC0024
:1038400080FDFACF8091CC038823B1F786E9898384
:103850008981815089838F5FD9F7412F4F5F4093D2
:103860000E040093CE03AFECB3E08F2D9E2D9C0190
:10387000F90102C081918D938E2F8F198417D0F397
:103880001092C50385EA8093BC000F90CF91DF9121
:103890001F910F91FF90EF9008951F920F920FB616
:1038A0000F920BB60F9211242F933F938F939F93F8
:1038B000EF93FF938091B9008832D1F0893240F4C0
:1038C0008031A1F08831A1F0883009F050C00EC0DD
:1038D000803459F1813420F4883309F048C041C064
:1038E0008035B9F0883509F042C02DC01092CD0363
:1038F0009091CD0380910E04981768F5E92FF0E0C0
:10390000E253FC4F80818093BB009F5F9093CD0377
:1039100018C08091CD039091BB00E82FF0E0E252F7
:10392000FC4F90838F5F8093CD032091CD0330E0D7
:1039300080910E0490E001972817390714F485EC64
:103940001BC085E819C08091BB00E091CD03F0E079
:10395000E252FC4F80838091C50381608093C50350
:103960000AC08091B9008093C60385EA05C08091A2
:10397000B9008093C60384E98093BC00FF91EF9166
:103980009F918F913F912F910F900BBE0F900FBE83
:103990000F901F90189508959093470380934603C6
:1039A0000895089590934F0380934E0308950895CA
:1039B0009093490380934803089508959093450395
:1039C000809344030895089590934B0380934A0392
:1039D0000895089590934D0380934C0308958AE0D1
:1039E00060E043E020913F0D0E949C1B0895282F2A
:1039F00080933F0D8AE060E043E00E949C1B0895A5
:103A0000282F8AE060E046E00E949C1B02C00E94D2
:103A10009E198091BC0080FDFACF8091CC03882351
:103A2000B1F708950F93282F062F8AE060E045E054
:103A30000E94D31B02C00E949E198091BC0080FD91
:103A4000FACF8091CC038823B1F70F9108950F939B
:103A50001F93DF93CF930F920F92CDB7DEB78823DA
:103A600011F080E090C082E59DE063E00E94611A61
:103A70002091520D80912A0D822720932A0D082F24
:103A800010E0C80180769070892B81F022952695F0
:103A90002770822F817080933E0D26952170209390
:103AA000420DE0914403F09145031995C8018670D9
:103AB0009070892B81F080912A0D8695982F9170B6
:103AC0009093100D8695817080934C0DE091460384
:103AD000F0914703199503FF1CC08AE06BE10E9437
:103AE0003D1B8AE0BE016F5F7F4F42E00E94BB1A20
:103AF000298130E086E0220F331F8A95E1F78A8121
:103B000090E0282B392BE0914803F0914903C9013B
:103B1000199500FF1DC08AE065E10E943D1B8AE007
:103B2000BE016F5F7F4F42E00E94BB1A9A8180E026
:103B3000298130E0822B932B90934E0D80934D0D75
:103B400080912A0DE0914A03F0914B038170199501
:103B50008091530D80934F0D83FF05C0E0914C037E
:103B6000F0914D0319958091540D8093360D8091FD
:103B70002A0D87FF05C0E0914E03F0914F03199580
:103B800010920F0481E00F900F90CF91DF911F9161
:103B90000F91089580910F04882369F480910301A7
:103BA00083FF09C081E080930F048AE060E040E079
:103BB00023E00E943C1A089502C00E949E19809141
:103BC000BC0080FDFACF8091CC038823B1F786E05A
:103BD00090E00E942E220E94CA1D02C00E949E19DF
:103BE0008091BC0080FDFACF8091CC038823B1F78F
:103BF00008958AE060E044E00E946A1B0E94DC1D98
:103C000008951F93122F10922C0D97E090932D0D75
:103C100080932E0D60932F0D5093300D4093310DF6
:103C20008AE06CE27DE046E00E940E1C0E94DC1DF2
:103C3000112349F004C00E94CA1D0E949E19809160
:103C4000360D80FFF8CF1F9108951F93122F109209
:103C50002C0D98E090932D0D80932E0D60932F0DD9
:103C60005093300D4093310D8AE06CE27DE046E0E8
:103C70000E940E1C0E94DC1D112349F004C00E940A
:103C8000CA1D0E949E198091360D80FFF8CF1F91AA
:103C900008958AE06DE041E15DE024E00E947E1A33
:103CA0009091120D80E02091110D820F911D909343
:103CB0003C0D80933B0D9091140D80E02091130DED
:103CC000820F911D9093410D8093400D08958AE0DD
:103CD00063E041E15DE028E10E947E1A8091110DD0
:103CE0008093370D8091120D80933D0D8091130DBF
:103CF0008093380D8091140D80934B0D8091150D9C
:103D000080932B0D8091160D8093290D9091180DA5
:103D100080E02091170D820F911D90934A0D8093A2
:103D2000490D90911A0D80E02091190D820F911D7F
:103D30009093440D8093430D90911C0D80E0209151
:103D40001B0D820F911D90933C0D80933B0D909124
:103D50001E0D80E020911D0D820F911D9093410D4D
:103D60008093400D9091200D80E020911F0D820FD7
:103D7000911D9093510D8093500D9091220D80E0F4
:103D80002091210D820F911D9093480D8093470D36
:103D90009091240D80E02091230D820F911D90932E
:103DA0004E0D80934D0D9091260D80E02091250DB4
:103DB000820F911D9093460D8093450D9091280D93
:103DC00080E02091270D820F911D90933A0D8093F2
:103DD000390D0895982F80917A0086FF03C020E066
:103DE00030E01CC0983020F088E080937B0002C057
:103DF00010927B009770906490937C0086ED809386
:103E00007A0080917A0086FDFCCF80917A008061F3
:103E100080937A002091780030917900C90108954B
:103E20008EBD0DB407FEFDCF08958FEF8EBD0DB48E
:103E300007FEFDCF8EB508958FEF8EBD0DB407FE42
:103E4000FDCF3EB58FEF8EBD0DB407FEFDCF2EB575
:103E5000932F80E030E0282B392BC90108959EBDB7
:103E60000DB407FEFDCF8EBD0DB407FEFDCF089546
:103E7000FC0190E007C080818EBD0DB407FEFDCF30
:103E80009F5F31969617B8F30895FC0190E02FEFED
:103E900007C02EBD0DB407FEFDCF8EB581939F5F89
:103EA0009617B8F3089598B1937C98B998B1880F94
:103EB000880F8C73982B98B90895459898B1811103
:103EC00080E2892B88B90895449898B1811180E1E6
:103ED000892B88B90895439898B1811188E0892B7E
:103EE00088B90895429898B1811184E0892B88B9E6
:103EF000089511B812B8A09A22E330E0C901215008
:103F00003040892BD9F70000A29822E330E0C901A4
:103F100021503040892BD9F70000A0982AE030E0EA
:103F2000C90121503040892BD9F700008FEF81B9AA
:103F3000089582B91092850D8091850D90E00797C4
:103F4000DCF3A19A26E930E0C90121503040892BE9
:103F5000D9F70000A19824E130E0C9012150304098
:103F6000892BD9F700000895A2980E94991F24EF89
:103F700031E0C90121503040892BD9F70000089564
:103F800081E00E94B41F2CE735E1C9012150304087
:103F9000892BD9F70000089520ED34E8C90121509C
:103FA0003040892BD9F70000A098A298A19825E06D
:103FB00030E007C01092850D8091850D90E00C9740
:103FC000DCF3215030408FEF2F3F380799F780E323
:103FD0000E94B41F2CEC38EDC90121503040892BD0
:103FE000D9F7000022E330E007C01092850D8091E0
:103FF000850D90E00C97DCF3215030408FEF2F3F80
:10400000380799F780E30E94B41F2CEC38EDC90102
:1040100021503040892BD9F7000025E030E007C05F
:104020001092850D8091850D90E00C97DCF3215066
:1040300030408FEF2F3F380799F780E30E94B41F7D
:104040002CEC38EDC90121503040892BD9F7000004
:1040500025E030E007C01092850D8091850D90E03D
:104060000C97DCF3215030408FEF2F3F380799F742
:1040700088E30E94B41F2CEC38EDC9012150304078
:10408000892BD9F7000021E030E007C01092850DA0
:104090008091850D90E00C97DCF3215030408FEF3C
:1040A0002F3F380799F788E00E94B41F2CEC38EDB9
:1040B000C90121503040892BD9F7000021E030E0C0
:1040C00007C01092850D8091850D90E00C97DCF370
:1040D000215030408FEF2F3F380799F781E00E9441
:1040E000B41F2CEC38EDC90121503040892BD9F791
:1040F000000021E030E007C01092850D8091850D11
:1041000090E00C97DCF3215030408FEF2F3F3807C1
:1041100099F782E00E94B41F2CEC38EDC9012150C0
:104120003040892BD9F7000021E030E007C0109221
:10413000850D8091850D90E00C97DCF32150304087
:104140008FEF2F3F380799F78CE00E94B41F2CECBB
:1041500038EDC90121503040892BD9F7000021E00A
:1041600030E007C01092850D8091850D90E00C978E
:10417000DCF3215030408FEF2F3F380799F725E0CF
:1041800030E007C01092850D8091850D90E00C976E
:10419000DCF3215030408FEF2F3F380799F70E9412
:1041A000C01F0895A29A0E94991F22E330E0C9011E
:1041B00021503040892BD9F700000895CF93DF9329
:1041C000EC0102C00E94D220FE0121968491882336
:1041D000C9F7DF91CF910895CF93DF93EC0103C02E
:1041E00021960E94D22088818823D1F7DF91CF9138
:1041F00008951F93CF93DF93162FEC01C40FD11DA9
:1042000004C021960E94D22011508881882311F089
:104210001123B9F7DF91CF911F9108956068813024
:1042200009F4605C862F0E94B41F0895EF92FF92FC
:104230000F931F938C017B010E94C01FC8010E9435
:10424000DE2081E060E00E940E21C7010E94DE2096
:104250001F910F91FF90EF9008951F93142F0E94CC
:104260000E2104C080E20E94D22011501123D1F708
:104270001F910895949916C028EE33E0C90121508A
:104280003040892BD9F70000949924C028EE33E000
:10429000C90121503040892BD9F70000949902C000
:1042A00081E00895939916C028EE33E0C9012150AA
:1042B0003040892BD9F7000093990CC028EE33E0E9
:1042C000C90121503040892BD9F70000939902C0D1
:1042D00082E0089580E0089580911104882341F0E0
:1042E0000E943A21882311F41092110480E008956D
:1042F0000E943A218093110408951F931091100495
:10430000112349F00E943A21882311F010E007C0E0
:104310001092100404C00E943A2180931004812F4F
:104320001F9108951F920F920FB60F9211248F9331
:104330009F938091310790913207019690933207B5
:10434000809331078091850D8F5F8093850D8091DB
:10435000860D8F5F8093860D8150893008F46AC086
:104360008091740D80FF09C08091750D9091760D3C
:1043700001969093760D8093750D8091740D81FF59
:1043800009C08091770D9091780D01969093780DEA
:104390008093770D8091740D82FF09C08091790D13
:1043A00090917A0D019690937A0D8093790D80917A
:1043B000740D83FF09C080917B0D90917C0D019657
:1043C00090937C0D80937B0D8091740D84FF09C0C8
:1043D00080917D0D90917E0D019690937E0D80933E
:1043E0007D0D8091740D85FF09C080917F0D9091A6
:1043F000800D01969093800D80937F0D8091740DB8
:1044000086FF09C08091810D9091820D0196909355
:10441000820D8093810D8091740D87FF09C080917A
:10442000830D9091840D01969093840D8093830D5C
:104430001092860D9F918F910F900FBE0F901F903D
:1044400018951092850D282F30E02F5F3F4F8091F7
:10445000850D90E028173907D4F708959C0109C00D
:104460001092850D8091850D90E00C97DCF3215022
:10447000304021153105A1F70895DF93CF930F92B6
:104480000F92CDB7DEB79A83898389819A8101978C
:104490009A8389830196C9F700000F900F90CF91FE
:1044A000DF9108950F931F93F894989AA098999A82
:1044B000A19812B887EF85B983E888B90FEF0BB9D7
:1044C0008DEF8EB901BB88E384BB009302018DE7B9
:1044D00080930501009308018FE380930B0101B9DC
:1044E00014B88CE787B91AB812E01DB910BA87E082
:1044F00083BB1092010196E0909304011092070192
:1045000080EC80930A011092C50089E18093C40079
:104510001092C0009093C20028E92093C10010922D
:10452000350181E080933401109230019093320183
:10453000209331010E94F3230E94482514BD15BD2C
:1045400087EC87BD08BD10936E0078941F910F9182
:1045500008950F931F93462F03E61DE0B80150E026
:104560000E94B85BC8010E94EC201F910F91089532
:10457000EF92FF920F931F93DF93CF93CDB7DEB7E8
:1045800061970FB6F894DEBF0FBECDBF262F042F64
:104590007E010894E11CF11CB701422F50E00E94FB
:1045A000B85BF70101900020E9F73197EE19FF0998
:1045B000102F1E1B11165CF4115080E30E94D220B4
:1045C0001123D1F7CE0101960E94EC2006C011956F
:1045D000C701602F412F0E94F92061960FB6F89411
:1045E000DEBF0FBECDBFCF91DF911F910F91FF9026
:1045F000EF900895982F8091C00085FFFCCF909395
:10460000C6000895FC0107C08091C00085FFFCCF63
:1046100031969093C60090819923B1F708959C013B
:1046200006C08091C00085FFFCCF9093C600F901C1
:104630002F5F3F4F94919923A1F70895FC01E40F58
:10464000F11D08C08091C00085FFFCCF319690938A
:10465000C60061509081992311F0662399F708955F
:104660001F920F920FB60F920BB60F9211242F9339
:104670003F934F935F938F939F93EF93FF9340915B
:1046800018045091190480911604909117049A010E
:10469000281B390BC901845F9140F8F48091140400
:1046A000909115042091C600FC01E657F24F20833B
:1046B000019690931504809314044F5F5F4F5093BD
:1046C000190440931804855F914020F0109215045E
:1046D000109214041092890D07C08091C600809337
:1046E0001B0481E08093890DFF91EF919F918F9141
:1046F0005F914F913F912F910F900BBE0F900FBE86
:104700000F901F9018951092890D209116043091EA
:10471000170480911804909119048217930711F4DB
:10472000E0E01EC02F5F3F4F309317042093160424
:104730008091120490911304855F914020F01092B3
:104740001304109212048091120490911304FC013E
:10475000E657F24FE0810196909313048093120480
:104760008E2F0895DC011092890D40E050E020C0AA
:104770002F5F3F4F3093170420931604809112044B
:1047800090911304FC01E657F24F2081FD01E40FE4
:10479000F51F208301969093130480931204855F84
:1047A000914020F010921304109212044F5F5F4F5B
:1047B00020911604309117048091180490911904E7
:1047C000821B930B8617970798F6CA0108952091CC
:1047D0001804309119048091160490911704281B35
:1047E000390BC9010895E1ECF0E080818F77808377
:1047F0008091C60080931A04109213041092120440
:1048000010921504109214041092170410921604BA
:1048100010921904109218041092890D80818068FA
:10482000808308950F931F93DF93CF93CDB7DEB7A7
:1048300061970FB6F894DEBF0FBECDBF462F8E0135
:104840000F5F1F4FB80150E00E94B85BC8010E9483
:10485000022361960FB6F894DEBF0FBECDBFCF9195
:10486000DF911F910F910895FF920F931F93DF9394
:10487000CF93CDB7DEB761970FB6F894DEBF0FBE0A
:10488000CDBF262FF42E8E010F5F1F4FB801422F90
:1048900050E00E94B85BF80101900020E9F73197E1
:1048A000E01BF10B4F2D4E1B14167CF490E341508E
:1048B0008091C00085FFFCCF9093C6004423B9F7D8
:1048C000CE0101960E94022305C04195C8016F2DBB
:1048D0000E941E2361960FB6F894DEBF0FBECDBFB7
:1048E000CF91DF911F910F91FF9008951F920F922A
:1048F0000FB60F920BB60F9211242F933F934F9345
:104900005F938F939F93EF93FF9340912304509174
:10491000240480912104909122049A01281B390BD0
:10492000C901885E9340F8F480911F04909120049F
:1049300020913601FC01E058FF4E208301969093B0
:10494000200480931F044F5F5F4F509324044093D3
:104950002304895E934020F01092200410921F04DB
:1049600010927F100CC080913601809332048091A8
:10497000050184608093050181E080937F10FF91A1
:10498000EF919F918F915F914F913F912F910F9058
:104990000BBE0F900FBE0F901F9018952091210411
:1049A000309122048091230490912404821793076C
:1049B00011F4E0E025C02F5F3F4F30932204209395
:1049C000210480911D0490911E04895E934020F083
:1049D00010921E0410921D0410927F108091050108
:1049E0008B7F8093050180911D0490911E04FC0132
:1049F000E058FF4EE081019690931E0480931D04C1
:104A00008E2F0895DC0140E050E020C02F5F3F4F23
:104A1000309322042093210480911D0490911E0460
:104A2000FC01E058FF4E2081FD01E40FF51F2083BB
:104A3000019690931E0480931D04895E934020F09C
:104A400010921E0410921D044F5F5F4F20912104AD
:104A5000309122048091230490912404821B930BB3
:104A60008617970798F610927F10809105018B7F2B
:104A700080930501CA0108952091230430912404F4
:104A80008091210490912204281B390BC9010895BB
:104A9000E1E3F1E080818F7780838091360180931C
:104AA000310410921E0410921D04109220041092E2
:104AB0001F041092220410922104109224041092D8
:104AC000230410927F10808180688083E5E0F1E00C
:104AD00080818B7F808308958A3011F08D3021F59D
:104AE00090913004992379F08A3019F49D3059F46B
:104AF00004C08D3041F49A3031F410923004109299
:104B00002C0480E008958093300480912C04E82FD9
:104B1000F0E0E158F04F108280932A0410922B04A9
:104B200010922C0481E0089590912C049F3F71F421
:104B300010927E108FEF90E090932B0480932A04C4
:104B40001092300410922C0482E0089510923004E8
:104B5000E92FF0E0E158F04F80839F5F90932C04A1
:104B600080E00895EF92FF920F931F93CF93DF930E
:104B7000EC017A018B0140E050E060E070E02091B0
:104B80002304309124048091210490912204281759
:104B90003907E9F00E94CE240E946C25882399F001
:104BA00080912A0490912B04029768F08FE79FE090
:104BB000BE010E949E5B009731F08AE090E00E9467
:104BC0002E2281E018C040E050E060E070E04E1519
:104BD0005F056007710750F08EEE9BE10E940F2386
:104BE00084E690E00E942E2280E005C04F5F5F4F78
:104BF0006F4F7F4FC4CFDF91CF911F910F91FF90E7
:104C0000EF900895DF92EF92FF920F931F93D82EAB
:104C10007A018B0140E050E060E070E020912304D5
:104C2000309124048091210490912204281739079F
:104C300071F00E94CE248D1531F48AE090E00E943C
:104C40002E2281E018C040E050E060E070E04E1598
:104C50005F056007710750F088EF9BE10E940F230A
:104C600084E690E00E942E2280E005C04F5F5F4FF7
:104C70006F4F7F4FD3CF1F910F91FF90EF90DF9039
:104C800008950F931F93182F8091300185FFFCCF5B
:104C90008091030187FF0BC081E080931C0407C053
:104CA0008EE190E00E943D2200931C0401C001E0CF
:104CB0008091030187FF04C08091AF03882381F7AF
:104CC000109336011F910F9108951F93CF93DF9397
:104CD000162FEC01C40FD11D04C021960E9441265D
:104CE00011508881882311F01123B9F7DF91CF91FA
:104CF0001F910895CF93DF93EC0102C00E944126DB
:104D0000FE01219684918823C9F7DF91CF91089500
:104D1000CF93DF93EC0103C021960E944126888146
:104D20008823D1F7DF91CF91089580E593E00E9429
:104D3000022383E793E00E94882685E793E00E94A0
:104D4000882686E990E00E942E2283E793E00E9465
:104D5000882682E390E00E942E2285E793E00E945D
:104D6000882686E990E00E942E2283E793E00E9445
:104D7000882685E793E00E94882683E793E00E94D7
:104D8000882686E990E00E942E228BE793E00E941D
:104D9000022304C00E94CE240E94FA222091230400
:104DA000309124048091210490912204281739071E
:104DB00089F78BE993E00E94022308950E94482519
:104DC00084E091E00E942E228DE993E00E948826E3
:104DD00081EA93E040EE50E762E770E00E94B2257E
:104DE000882369F085E090E00E942E2283E793E01B
:104DF0000E94882681E090E00E942E2208950E9461
:104E0000952608950F931F93DF93CF93CDB7DEB709
:104E100061970FB6F894DEBF0FBECDBF462F8E014F
:104E20000F5F1F4FB80150E00E94B85BC8010E949D
:104E3000882661960FB6F894DEBF0FBECDBFCF9126
:104E4000DF911F910F910895EF92FF920F931F939F
:104E5000CF93DF93F82EE92EEF2DFE2DDF010D907D
:104E60000020E9F78D01015010400E1B1F0B2F2D64
:104E70003E2DC901EC010CC0892F90E08770907025
:104E8000892B19F489E10E94212289910E944126EF
:104E9000FE01EF199E2F8881882371F78AE00E9416
:104EA000212283E793E00E94882610E0C8010E9437
:104EB000465A6F2D7E2D0E946F5BEC01080F191F63
:104EC00001501040D8011C9240E050E060E070E0DA
:104ED0002091230430912404809121049091220494
:104EE00028173907F9F00E94CE240E946C258823E8
:104EF00009F443C080912A0490912B040297E8F1B1
:104F00008FE79FE0BE010E949E5B0097B1F18AE0AF
:104F100090E00E942E22CE010E94F35A10922E049D
:104F200081E034C04039B0ED5B07B3E06B07B0E01F
:104F30007B0738F18AE99BE10E940F238F2D9E2D7C
:104F40000E94022388E79BE10E940F2384E690E001
:104F50000E942E22CE010E94F35A80912E048330AB
:104F600040F48F5F80932E0484E59BE10E940F2321
:104F700073CF10922E0480E009C040E050E060E062
:104F800070E04F5F5F4F6F4F7F4FA2CFDF91CF91A8
:104F90001F910F91FF90EF900895DF92EF92FF9293
:104FA0000F931F93CF93DF93F82EE92ED62EE82F81
:104FB000F92FDF010D900020E9F78D01015010401D
:104FC0000E1B1F0B282F392FC901EC010CC0892F94
:104FD00090E087709070892B19F489E10E9421225A
:104FE00089910E944126FE01EF199E2F8881882316
:104FF00071F78AE00E94212283E793E00E948826CD
:1050000010E0C8010E94465A6F2D7E2D0E946F5BF2
:10501000EC01080F191F01501040D8011C9240E00C
:1050200050E060E070E00D2D10E08091230490913D
:1050300024042091210430912204821B930B8017B9
:10504000910700F10E94CE240E946C25882309F468
:1050500048C080912A0490912B04029708F441C023
:105060008FE79FE0BE010E949E5B0097D1F18AE02E
:1050700090E00E942E22CE010E94F35A10922D043D
:1050800081E038C04039B0ED5B07B3E06B07B0E0BA
:105090007B0758F18DE49BE10E940F238F2D9E2DFD
:1050A0000E9402238BE29BE10E940F2384E690E0A2
:1050B0000E942E22CE010E94F35A80912D0483304B
:1050C00060F48F5F80932D0487E09BE10E940F23A3
:1050D0008F2D9E2D0E9424270DC010922D0480E05C
:1050E00009C040E050E060E070E04F5F5F4F6F4FFD
:1050F0007F4F9BCFDF91CF911F910F91FF90EF904A
:10510000DF900895CF92DF92EF92FF920F931F935B
:10511000CF93DF93F82EE92E6B01EF2DFE2DDF01EB
:105120000D900020E9F78D01015010400E1B1F0B60
:105130002F2D3E2DC901EC010CC0892F90E0877006
:105140009070892B19F48EE10E94212289910E948E
:105150004126FE01EF199E2F8881882371F78FE089
:105160000E94212283E793E00E94882610E0C80174
:105170000E94465A6F2D7E2D0E946F5BEC01080F36
:10518000191F01501040D8011C9240E050E060E02F
:1051900070E010E0209123043091240480912104D8
:1051A000909122042817390761F10E94CE240E94B1
:1051B0006C25882309F45EC080912A0490912B0409
:1051C000029708F457C0112349F48FE79FE0BE010E
:1051D0000E949E5B009709F44DC011E08FE79FE0AD
:1051E000B6010E949E5B009709F444C08AE090E0FB
:1051F0000E942E22CE010E94F35A10922F0481E0C9
:1052000030C04039B0ED5B07B3E06B07B0E07B071F
:1052100018F187EE9BE10E940F238F2D9E2D0E9497
:10522000022385EC9BE10E940F2384E690E00E941C
:105230002E22CE010E94F35A80912F04833040F435
:105240008F5F80932F0481EA9BE10E940F2365CF3B
:1052500010922F0480E005C04F5F5F4F6F4F7F4F6C
:1052600099CFDF91CF911F910F91FF90EF90DF9039
:10527000CF90089540E050E060E070E0EDCF83E72C
:1052800093E00E94882686E990E00E942E2285EA1B
:1052900093E06AEA73E00E9482280895EF92FF92F9
:1052A0000F931F93DF93CF93CDB7DEB761970FB600
:1052B000F894DEBF0FBECDBF262F042F7E010894C9
:1052C000E11CF11CB701422F50E00E94B85BF701CE
:1052D00001900020E9F73197EE19FF09102F1E1BEE
:1052E00011165CF4115080E30E9441261123D1F77E
:1052F000CE0101960E94882606C01195C701602F35
:10530000412F0E94652661960FB6F894DEBF0FBE4E
:10531000CDBFCF91DF911F910F91FF90EF90089536
:1053200081E0089580E00895282F8FEF8EBD0DB4A1
:1053300007FEFDCF8DB58F778DBD8EB5822F806432
:105340008EBD0DB407FEFDCF8DB58F778DBD872F38
:105350009927AA27BB278EBD0DB407FEFDCF8DB5BB
:105360008F778DBDCB01AA27BB278EBD0DB407FE5D
:10537000FDCF8DB58F778DBDBB27A72F962F852F9E
:105380008EBD0DB407FEFDCF8DB58F778DBD4EBDA3
:105390000DB407FEFDCF8DB58F778DBD222319F09B
:1053A000283069F406C085E98EBD0DB407FEFDCF37
:1053B0000BC087E88EBD0DB407FEFDCF05C08FEF93
:1053C0008EBD0DB407FEFDCF8DB58F778DBD90E0FE
:1053D0002FEF2EBD0DB407FEFDCF8DB58F778DBDA0
:1053E0008EB58F3F19F49F5F9A3099F708958F9289
:1053F0009F92AF92BF92CF92DF92EF92FF920F9364
:105400001F93CF93DF93EC01009781F08DE1FE01B4
:1054100011928A95E9F728988AE040E050E060E030
:1054200070E00E949429882319F0289A80E021C115
:105430009FEF9EBD0DB407FEFDCF8DB58F778DBD5F
:105440008EB58E3FB1F71C2FCE01FC0160E670E0F7
:105450000FEF9E2F911B0EBD0DB407FEFDCF8DB536
:105460008F778DBD2EB5983028F4933088F499232A
:1054700059F00CC09D3018F4993070F40BC09D3079
:1054800019F19E3069F524C028832AC0208328C0E2
:10549000218326C02A8724C030E040E050E0062E59
:1054A00004C0220F331F441F551F0A94D2F78B8567
:1054B0009C85AD85BE85822B932BA42BB52B8B872A
:1054C0009C87AD87BE870CC02295207F2F8708C0A0
:1054D000922F92959F708F85892B8F872F70288BA5
:1054E0003196685070408FEF603D780709F0B1CF7A
:1054F00089E040E050E060E070E00E949429882359
:1055000009F093CF9FEF9EBD0DB407FEFDCF8DB583
:105510008F778DBD8EB58E3FB1F780913C06C82E3A
:10552000DD24E2E0CE22DD249924BB24EE24FF24F6
:1055300010E088248A94AA24A3948EBC0DB407FE9C
:10554000FDCF8DB58F778DBD2EB51E3081F4822FA6
:1055500090E026FDA98E85FDAA8E84FDAB8E8C7011
:10556000907095958795959587958C8F7CC0C11483
:10557000D10439F1173029F0173050F01A3040F4C7
:1055800001C02F739E2D8827E22EFF24E82AF92AD6
:10559000193009F068C00894E11CF11C970140E043
:1055A00050E060E070E080E090E003E10E94285964
:1055B000298B3A8B4B8B5C8B6D8B7E8B8F8B988F73
:1055C00052C01730D9F0183030F4153061F0163071
:1055D00009F049C00CC0193031F11930C0F01A304F
:1055E00009F041C025C07FE0972E92223CC0822F57
:1055F00090E083709070F82EEE2435C0822F90E0FA
:10560000E82AF92AEE0CFF1CEE0CFF1C2CC0229598
:10561000269526952370822F90E0E82AF92A08948F
:10562000E11CF11C20C043E0B42EB222BB0C1BC015
:10563000221F2227221FB22A970140E050E0E92DC5
:10564000F0E03296EB0DF11D04C0220F331F441F12
:10565000551FEA95D2F7298B3A8B4B8B5C8B1D8AB1
:105660001E8A1F8A188E1F5F123109F066CF289A92
:1056700081E0DF91CF911F910F91FF90EF90DF902C
:10568000CF90BF90AF909F908F9008952F923F92B0
:105690004F925F926F927F928F929F92AF92BF9242
:1056A000CF92DF92EF92FF920F931F93DF93CF93EE
:1056B000CDB7DEB72C970FB6F894DEBF0FBECDBFC7
:1056C00039014A015B016C011A830983FC82EB8278
:1056D00090C1BFEF4B2EB1E05B2E462057209201C8
:1056E000A62DA419AA87E1E06A1608F0E0E0872D4C
:1056F000831B21E0781608F020E0B82FBE1BBD8385
:1057000091E08B1708F090E0292BE82DE21BEE8347
:1057100031E08E1608F030E0F92DF31BFF8361E0D5
:105720009F1608F060E02A2D261B288771E0A2163C
:1057300008F070E02B2C271A91E0B21408F090E0EA
:105740003C2C391A91E0C31408F090E03D2D391B30
:10575000398780E092E0841995099C878B87AB811B
:10576000BC81A817B90710F4BC87AB8780913306BA
:10577000BA858B1709F580913406ED818E17E1F417
:1057800080913506FE818F17B9F4809136062F81FE
:10579000821791F4809137063885831769F48091D8
:1057A0003806821549F480913906831529F48091D1
:1057B0003A0699858917A9F10E941A2D882309F4C0
:1057C0001FC14114510429F4AB85BC85A050B240DF
:1057D00090F42A853D814E815F816885722D832DED
:1057E000998503E314E0E12CA2E0FA2E0E94452DF6
:1057F000882309F405C1FA85F09333062D8120939F
:1058000034063E81309335068F8180933606988525
:10581000909337062092380630923906A985A093D6
:105820003A06E981FA81E353F440A1F092012D5C3C
:105830003B4FC90169817A814B855C850E944B5B36
:1058400010923B068B819C81AB85BC858A179B0798
:1058500009F4D4C0289880913C0682FF0FC02A85A5
:105860003D814E815F816885722D832D998509E088
:105870000E94A958BA01A9019B0105C08A859D8192
:105880002E813F81AC0188E1B9010E9494298823CF
:1058900011F0289AB5C0BEEFBEBD0DB407FEFDCF16
:1058A0008DB58F778DBDE3E3F4E081918EBD0DB4AE
:1058B00007FEFDCF8DB58F778DBD26E0E333F20770
:1058C000A1F73FEF3EBD0DB407FEFDCF8DB58F773D
:1058D0008DBD8FEF8EBD0DB407FEFDCF8DB58F77DB
:1058E0008DBD9FEF9EBD0DB407FEFDCF8DB58F77AB
:1058F0008DBD8EB58F3FA9F78EBD0DB407FEFDCFD0
:105900008DB58F778DBD8EB5289AA981BA81EB852B
:10591000FC85AE0FBF1FBA83A9839F0140E050E012
:1059200060E070E080E090E0462C4E0EF1E046141E
:1059300008F0F0E0E72DE30FA1E0E71508F0A0E0A4
:105940005F2E5E0EF1E05E1608F0F0E0AF2BE82D62
:10595000E40FB1E0E81508F0B0E0EA2EEE0EF1E059
:10596000EE1608F0F0E0BF2BE92DE50FA1E0E915F8
:1059700008F0A0E0FB2EFE0EF1E0FE1608F0F0E0CD
:10598000AF2BEA2DE60FB1E0EA1508F0B0E00A2FE0
:105990000E0FF1E00E1708F0F0E0BF2BEB2DE70F34
:1059A000A1E0EB1508F0A0E01B2F1E0FF1E01E1781
:1059B00008F0F0E0AF2BEC2DE80FB1E0EC1508F0AB
:1059C000B0E0AE0FF1E0AE1708F0F0E0BF2B8D2D88
:1059D000890F3201470158016D01D80E2B813C819E
:1059E0008B859C85281B390B3C832B8391E09093FE
:1059F0003B06AB81BC81AB2B09F06BCE81E001C0D3
:105A000080E02C960FB6F894DEBF0FBECDBFCF91CD
:105A1000DF911F910F91FF90EF90DF90CF90BF909B
:105A2000AF909F908F907F906F905F904F903F903E
:105A30002F900895EF92FF920F931F9380913B0652
:105A4000882311F081E01CC0209133063091340688
:105A500040913506509136066091370670913806B0
:105A60008091390690913A0603E314E0E12CE2E0DC
:105A7000FE2E0E94462B882319F081E080933B067E
:105A80001F910F91FF90EF9008952F923F924F92A8
:105A90005F926F927F928F929F92AF92BF92CF92BE
:105AA000DF92EF92FF920F931F93DF93CF93CDB7C7
:105AB000DEB729970FB6F894DEBF0FBECDBF390110
:105AC0004A015B016C012801FA82E9826BC1FFEF98
:105AD000EF2EF1E0FF2EE620F7209701A62DAE195C
